{
  "contractName": "BasicToken",
  "abi": [
    {
      "constant": true,
      "inputs": [],
      "name": "name",
      "outputs": [
        {
          "name": "",
          "type": "string"
        }
      ],
      "payable": false,
      "stateMutability": "view",
      "type": "function"
    },
    {
      "constant": true,
      "inputs": [],
      "name": "decimals",
      "outputs": [
        {
          "name": "",
          "type": "uint8"
        }
      ],
      "payable": false,
      "stateMutability": "view",
      "type": "function"
    },
    {
      "constant": true,
      "inputs": [],
      "name": "symbol",
      "outputs": [
        {
          "name": "",
          "type": "string"
        }
      ],
      "payable": false,
      "stateMutability": "view",
      "type": "function"
    },
    {
      "inputs": [
        {
          "name": "_totalSupply",
          "type": "uint256"
        },
        {
          "name": "_price",
          "type": "uint256"
        }
      ],
      "payable": false,
      "stateMutability": "nonpayable",
      "type": "constructor"
    },
    {
      "anonymous": false,
      "inputs": [
        {
          "indexed": false,
          "name": "buyer",
          "type": "address"
        },
        {
          "indexed": false,
          "name": "amount",
          "type": "uint256"
        }
      ],
      "name": "Buy",
      "type": "event"
    },
    {
      "anonymous": false,
      "inputs": [
        {
          "indexed": true,
          "name": "from",
          "type": "address"
        },
        {
          "indexed": true,
          "name": "to",
          "type": "address"
        },
        {
          "indexed": false,
          "name": "value",
          "type": "uint256"
        }
      ],
      "name": "Transfer",
      "type": "event"
    },
    {
      "constant": true,
      "inputs": [],
      "name": "price",
      "outputs": [
        {
          "name": "",
          "type": "uint256"
        }
      ],
      "payable": false,
      "stateMutability": "view",
      "type": "function"
    },
    {
      "constant": true,
      "inputs": [],
      "name": "totalSupply",
      "outputs": [
        {
          "name": "",
          "type": "uint256"
        }
      ],
      "payable": false,
      "stateMutability": "view",
      "type": "function"
    },
    {
      "constant": false,
      "inputs": [],
      "name": "buy",
      "outputs": [
        {
          "name": "",
          "type": "bool"
        }
      ],
      "payable": true,
      "stateMutability": "payable",
      "type": "function"
    },
    {
      "constant": false,
      "inputs": [
        {
          "name": "_to",
          "type": "address"
        },
        {
          "name": "_value",
          "type": "uint256"
        }
      ],
      "name": "transfer",
      "outputs": [
        {
          "name": "",
          "type": "bool"
        }
      ],
      "payable": false,
      "stateMutability": "nonpayable",
      "type": "function"
    },
    {
      "constant": true,
      "inputs": [
        {
          "name": "_owner",
          "type": "address"
        }
      ],
      "name": "balanceOf",
      "outputs": [
        {
          "name": "balance",
          "type": "uint256"
        }
      ],
      "payable": false,
      "stateMutability": "view",
      "type": "function"
    }
  ],
  "bytecode": "0x60606040526040805190810160405280600a81526020017f50656e6520546f6b656e000000000000000000000000000000000000000000008152506000908051906020019061004f9291906100fd565b506040805190810160405280600481526020017f50544b4e000000000000000000000000000000000000000000000000000000008152506001908051906020019061009b9291906100fd565b506012600260006101000a81548160ff021916908360ff16021790555034156100c357600080fd5b60405160408061099c83398101604052808051906020019091908051906020019091905050816004819055508060058190555050506101a2565b828054600181600116156101000203166002900490600052602060002090601f016020900481019282601f1061013e57805160ff191683800117855561016c565b8280016001018555821561016c579182015b8281111561016b578251825591602001919060010190610150565b5b509050610179919061017d565b5090565b61019f91905b8082111561019b576000816000905550600101610183565b5090565b90565b6107eb806101b16000396000f30060606040526004361061008e576000357c0100000000000000000000000000000000000000000000000000000000900463ffffffff16806306fdde031461009357806318160ddd14610121578063313ce5671461014a57806370a082311461017957806395d89b41146101c6578063a035b1fe14610254578063a6f2ae3a1461027d578063a9059cbb1461029f575b600080fd5b341561009e57600080fd5b6100a66102f9565b6040518080602001828103825283818151815260200191508051906020019080838360005b838110156100e65780820151818401526020810190506100cb565b50505050905090810190601f1680156101135780820380516001836020036101000a031916815260200191505b509250505060405180910390f35b341561012c57600080fd5b610134610397565b6040518082815260200191505060405180910390f35b341561015557600080fd5b61015d6103a1565b604051808260ff1660ff16815260200191505060405180910390f35b341561018457600080fd5b6101b0600480803573ffffffffffffffffffffffffffffffffffffffff169060200190919050506103b4565b6040518082815260200191505060405180910390f35b34156101d157600080fd5b6101d96103fd565b6040518080602001828103825283818151815260200191508051906020019080838360005b838110156102195780820151818401526020810190506101fe565b50505050905090810190601f1680156102465780820380516001836020036101000a031916815260200191505b509250505060405180910390f35b341561025f57600080fd5b61026761049b565b6040518082815260200191505060405180910390f35b6102856104a5565b604051808215151515815260200191505060405180910390f35b34156102aa57600080fd5b6102df600480803573ffffffffffffffffffffffffffffffffffffffff169060200190919080359060200190919050506105bb565b604051808215151515815260200191505060405180910390f35b60008054600181600116156101000203166002900480601f01602080910402602001604051908101604052809291908181526020018280546001816001161561010002031660029004801561038f5780601f106103645761010080835404028352916020019161038f565b820191906000526020600020905b81548152906001019060200180831161037257829003601f168201915b505050505081565b6000600454905090565b600260009054906101000a900460ff1681565b6000600360008373ffffffffffffffffffffffffffffffffffffffff1673ffffffffffffffffffffffffffffffffffffffff168152602001908152602001600020549050919050565b60018054600181600116156101000203166002900480601f0160208091040260200160405190810160405280929190818152602001828054600181600116156101000203166002900480156104935780601f1061046857610100808354040283529160200191610493565b820191906000526020600020905b81548152906001019060200180831161047657829003601f168201915b505050505081565b6000600554905090565b600080600554348115156104b557fe5b04905080600360003373ffffffffffffffffffffffffffffffffffffffff1673ffffffffffffffffffffffffffffffffffffffff1681526020019081526020016000205401600360003373ffffffffffffffffffffffffffffffffffffffff1673ffffffffffffffffffffffffffffffffffffffff1681526020019081526020016000208190555080600454016004819055507fe3d4187f6ca4248660cc0ac8b8056515bac4a8132be2eca31d6d0cc170722a7e3382604051808373ffffffffffffffffffffffffffffffffffffffff1673ffffffffffffffffffffffffffffffffffffffff1681526020018281526020019250505060405180910390a1600191505090565b60008073ffffffffffffffffffffffffffffffffffffffff168373ffffffffffffffffffffffffffffffffffffffff16141515156105f857600080fd5b600360003373ffffffffffffffffffffffffffffffffffffffff1673ffffffffffffffffffffffffffffffffffffffff16815260200190815260200160002054821115151561064657600080fd5b81600360003373ffffffffffffffffffffffffffffffffffffffff1673ffffffffffffffffffffffffffffffffffffffff1681526020019081526020016000205403600360003373ffffffffffffffffffffffffffffffffffffffff1673ffffffffffffffffffffffffffffffffffffffff1681526020019081526020016000208190555081600360008573ffffffffffffffffffffffffffffffffffffffff1673ffffffffffffffffffffffffffffffffffffffff1681526020019081526020016000205401600360008573ffffffffffffffffffffffffffffffffffffffff1673ffffffffffffffffffffffffffffffffffffffff168152602001908152602001600020819055508273ffffffffffffffffffffffffffffffffffffffff163373ffffffffffffffffffffffffffffffffffffffff167fddf252ad1be2c89b69c2b068fc378daa952ba7f163c4a11628f55a4df523b3ef846040518082815260200191505060405180910390a360019050929150505600a165627a7a72305820b8cc242198624fed112b6daec78d3419310d04925562cb3c848ac8e1ecc54a410029",
  "source": "pragma solidity ^0.4.18;\n\n\nimport \"./ERC20Basic.sol\";\n\n\n/**\n * @title Basic token\n * @dev Basic version of StandardToken, with no allowances.\n */\ncontract BasicToken is ERC20Basic {\n    event Buy(address buyer, uint256 amount);\n\n    string public name = \"Pene Token\";\n    string public symbol = \"PTKN\";\n    uint8 public decimals = 18;\n\n    mapping(address => uint256) private balances;\n    uint256 private totalSupply_;\n    uint256 private price_;\n\n    function BasicToken(uint256 _totalSupply, uint256 _price) public {\n        totalSupply_ = _totalSupply;\n        price_ = _price;\n    }\n\n    function price() public view returns (uint256) {\n        return price_;\n    }\n\n    /* *\n    * @dev total number of tokens in existence\n    */\n    function totalSupply() public view returns (uint256) {\n        return totalSupply_;\n    }\n\n    function buy() public payable returns (bool) {\n        uint256 amount = msg.value / price_;\n        balances[msg.sender] = balances[msg.sender] + amount;\n        totalSupply_ = totalSupply_ + amount;\n\n        Buy(msg.sender, amount);\n        return true;\n    }\n\n    /**\n    * @dev transfer token for a specified address\n    * @param _to The address to transfer to.\n    * @param _value The amount to be transferred.\n    */\n    function transfer(address _to, uint256 _value) public returns (bool) {\n        require(_to != address(0));\n        require(_value <= balances[msg.sender]);\n\n        // SafeMath.sub will throw if there is not enough balance.\n        balances[msg.sender] = balances[msg.sender] - _value;\n        balances[_to] = balances[_to] + _value;\n        Transfer(msg.sender, _to, _value);\n        return true;\n    }\n\n    /**\n    * @dev Gets the balance of the specified address.\n    * @param _owner The address to query the the balance of.\n    * @return An uint256 representing the amount owned by the passed address.\n    */\n    function balanceOf(address _owner) public view returns (uint256 balance) {\n        return balances[_owner];\n    }\n\n}\n",
  "sourcePath": "/home/diego/Documentos/src/github.com/Bigomby/dapps-workshop/examples/erc20/truffle/contracts/BasicToken.sol",
  "compiler": {
    "name": "solc",
    "version": "0.4.19+commit.c4cbbb05.Emscripten.clang"
  },
  "schemaVersion": "1.0.1",
  "updatedAt": "2018-03-01T10:57:17.438Z"
}