{
  "contractName": "Booking",
  "abi": [
    {
      "constant": true,
      "inputs": [],
      "name": "listRoomsIds",
      "outputs": [
        {
          "name": "",
          "type": "uint32[]"
        }
      ],
      "payable": false,
      "stateMutability": "view",
      "type": "function"
    },
    {
      "constant": true,
      "inputs": [
        {
          "name": "roomId",
          "type": "uint32"
        }
      ],
      "name": "getRoom",
      "outputs": [
        {
          "name": "capacity",
          "type": "uint8"
        },
        {
          "name": "enabled",
          "type": "bool[6]"
        },
        {
          "name": "data",
          "type": "bytes32[6]"
        }
      ],
      "payable": false,
      "stateMutability": "view",
      "type": "function"
    },
    {
      "constant": true,
      "inputs": [],
      "name": "maxDays",
      "outputs": [
        {
          "name": "",
          "type": "uint8"
        }
      ],
      "payable": false,
      "stateMutability": "view",
      "type": "function"
    },
    {
      "constant": false,
      "inputs": [
        {
          "name": "_maxDays",
          "type": "uint8"
        }
      ],
      "name": "setMaxDays",
      "outputs": [],
      "payable": false,
      "stateMutability": "nonpayable",
      "type": "function"
    },
    {
      "constant": false,
      "inputs": [
        {
          "name": "roomId",
          "type": "uint32"
        },
        {
          "name": "slotId",
          "type": "uint8"
        },
        {
          "name": "timestamp",
          "type": "uint32"
        }
      ],
      "name": "book",
      "outputs": [],
      "payable": false,
      "stateMutability": "nonpayable",
      "type": "function"
    },
    {
      "constant": true,
      "inputs": [
        {
          "name": "roomId",
          "type": "uint32"
        },
        {
          "name": "slotId",
          "type": "uint8"
        },
        {
          "name": "timestamp",
          "type": "uint32"
        }
      ],
      "name": "checkAvailability",
      "outputs": [
        {
          "name": "",
          "type": "bool"
        }
      ],
      "payable": false,
      "stateMutability": "view",
      "type": "function"
    },
    {
      "constant": false,
      "inputs": [
        {
          "name": "roomId",
          "type": "uint32"
        },
        {
          "name": "order",
          "type": "uint8"
        },
        {
          "name": "data",
          "type": "bytes32"
        }
      ],
      "name": "setSlot",
      "outputs": [],
      "payable": false,
      "stateMutability": "nonpayable",
      "type": "function"
    },
    {
      "constant": false,
      "inputs": [
        {
          "name": "roomId",
          "type": "uint32"
        },
        {
          "name": "capacity",
          "type": "uint8"
        }
      ],
      "name": "setRoom",
      "outputs": [],
      "payable": false,
      "stateMutability": "nonpayable",
      "type": "function"
    },
    {
      "inputs": [
        {
          "name": "_maxDays",
          "type": "uint8"
        }
      ],
      "payable": false,
      "stateMutability": "nonpayable",
      "type": "constructor"
    }
  ],
  "bytecode": "0x6060604052341561000f57600080fd5b604051602080610e2b8339810160405280805190602001909190505060008160ff1611151561003d57600080fd5b806000806101000a81548160ff021916908360ff16021790555033600060016101000a81548173ffffffffffffffffffffffffffffffffffffffff021916908373ffffffffffffffffffffffffffffffffffffffff16021790555050610d83806100a86000396000f30060606040526004361061008e576000357c0100000000000000000000000000000000000000000000000000000000900463ffffffff1680632094f2a8146100935780632836a3fc146100fd57806329ad27d71461019e57806332d6ad88146101cd578063513b3d78146101f35780636ef3649a14610237578063847bfa0b14610293578063bc761372146102d5575b600080fd5b341561009e57600080fd5b6100a661030a565b6040518080602001828103825283818151815260200191508051906020019060200280838360005b838110156100e95780820151818401526020810190506100ce565b505050509050019250505060405180910390f35b341561010857600080fd5b610124600480803563ffffffff16906020019091905050610394565b604051808460ff1660ff16815260200183600660200280838360005b8381101561015b578082015181840152602081019050610140565b5050505090500182600660200280838360005b8381101561018957808201518184015260208101905061016e565b50505050905001935050505060405180910390f35b34156101a957600080fd5b6101b1610507565b604051808260ff1660ff16815260200191505060405180910390f35b34156101d857600080fd5b6101f1600480803560ff16906020019091905050610519565b005b34156101fe57600080fd5b610235600480803563ffffffff1690602001909190803560ff1690602001909190803563ffffffff169060200190919050506105a4565b005b341561024257600080fd5b610279600480803563ffffffff1690602001909190803560ff1690602001909190803563ffffffff169060200190919050506107ac565b604051808215151515815260200191505060405180910390f35b341561029e57600080fd5b6102d3600480803563ffffffff1690602001909190803560ff1690602001909190803560001916906020019091905050610926565b005b34156102e057600080fd5b610308600480803563ffffffff1690602001909190803560ff16906020019091905050610a6f565b005b610312610bd3565b600280548060200260200160405190810160405280929190818152602001828054801561038a57602002820191906000526020600020906000905b82829054906101000a900463ffffffff1663ffffffff168152602001906004019060208260030104928301926001038202915080841161034d5790505b5050505050905090565b600061039e610be7565b6103a6610c11565b6103ae610c3c565b60006103b8610c61565b600160008863ffffffff1663ffffffff1681526020019081526020016000206040805190810160405290816000820160009054906101000a900460ff1660ff1660ff16815260200160018201600680602002604051908101604052809291906000905b82821015610470578382600302016040805190810160405290816000820160009054906101000a900460ff1615151515815260200160018201546000191660001916815250508152602001906001019061041b565b5050505081525050925082600001519550600091505b60068210156104fd578260200151826006811015156104a157fe5b60200201519050806000015185836006811015156104bb57fe5b602002019015159081151581525050806020015184836006811015156104dd57fe5b602002019060001916908160001916815250508180600101925050610486565b5050509193909250565b6000809054906101000a900460ff1681565b600060019054906101000a900473ffffffffffffffffffffffffffffffffffffffff1673ffffffffffffffffffffffffffffffffffffffff163373ffffffffffffffffffffffffffffffffffffffff1614151561057557600080fd5b60008160ff1611151561058757600080fd5b806000806101000a81548160ff021916908360ff16021790555050565b6000806000806000876000600160008363ffffffff1663ffffffff16815260200190815260200160002060000160009054906101000a900460ff1660ff161115156105ee57600080fd5b6105fd8763ffffffff16610ba5565b9550610607610bbd565b94508463ffffffff168663ffffffff161015801561064457506000809054906101000a900460ff1660ff16850163ffffffff168663ffffffff1611155b151561064f57600080fd5b600160008a63ffffffff1663ffffffff1681526020019081526020016000206001018860ff1660068110151561068157fe5b6003020160000160009054906101000a900460ff1615156106a157600080fd5b600160008a63ffffffff1663ffffffff1681526020019081526020016000209350836001018860ff166006811015156106d657fe5b6003020192508260020160008763ffffffff1663ffffffff1681526020019081526020016000209150600073ffffffffffffffffffffffffffffffffffffffff168260000160009054906101000a900473ffffffffffffffffffffffffffffffffffffffff1673ffffffffffffffffffffffffffffffffffffffff1614151561075e57600080fd5b338260000160006101000a81548173ffffffffffffffffffffffffffffffffffffffff021916908373ffffffffffffffffffffffffffffffffffffffff160217905550505050505050505050565b6000806107b7610c80565b856000600160008363ffffffff1663ffffffff16815260200190815260200160002060000160009054906101000a900460ff1660ff161115156107f957600080fd5b600160008863ffffffff1663ffffffff1681526020019081526020016000206001018660ff1660068110151561082b57fe5b6003020192508260000160009054906101000a900460ff161515610852576000935061091c565b8260020160006108678763ffffffff16610ba5565b63ffffffff1663ffffffff168152602001908152602001600020602060405190810160405290816000820160009054906101000a900473ffffffffffffffffffffffffffffffffffffffff1673ffffffffffffffffffffffffffffffffffffffff1673ffffffffffffffffffffffffffffffffffffffff16815250509150600073ffffffffffffffffffffffffffffffffffffffff16826000015173ffffffffffffffffffffffffffffffffffffffff161493505b5050509392505050565b826000600160008363ffffffff1663ffffffff16815260200190815260200160002060000160009054906101000a900460ff1660ff1611151561096857600080fd5b600060019054906101000a900473ffffffffffffffffffffffffffffffffffffffff1673ffffffffffffffffffffffffffffffffffffffff163373ffffffffffffffffffffffffffffffffffffffff161415156109c457600080fd5b60068360ff161015156109d657600080fd5b60018060008663ffffffff1663ffffffff1681526020019081526020016000206001018460ff16600681101515610a0957fe5b6003020160000160006101000a81548160ff02191690831515021790555081600160008663ffffffff1663ffffffff1681526020019081526020016000206001018460ff16600681101515610a5a57fe5b60030201600101816000191690555050505050565b600060019054906101000a900473ffffffffffffffffffffffffffffffffffffffff1673ffffffffffffffffffffffffffffffffffffffff163373ffffffffffffffffffffffffffffffffffffffff16141515610acb57600080fd5b60008160ff16111515610add57600080fd5b6000600160008463ffffffff1663ffffffff16815260200190815260200160002060000160009054906101000a900460ff1660ff161415610b665760028054806001018281610b2c9190610caa565b916000526020600020906008918282040191900660040284909190916101000a81548163ffffffff021916908363ffffffff160217905550505b80600160008463ffffffff1663ffffffff16815260200190815260200160002060000160006101000a81548160ff021916908360ff1602179055505050565b60006201518082811515610bb557fe5b049050919050565b60006201518042811515610bcd57fe5b04905090565b602060405190810160405280600081525090565b60c0604051908101604052806006905b60001515815260200190600190039081610bf75790505090565b60c0604051908101604052806006905b6000801916815260200190600190039081610c215790505090565b6101a060405190810160405280600060ff168152602001610c5b610ce4565b81525090565b6040805190810160405280600015158152602001600080191681525090565b602060405190810160405280600073ffffffffffffffffffffffffffffffffffffffff1681525090565b815481835581811511610cdf576007016008900481600701600890048360005260206000209182019101610cde9190610d13565b5b505050565b610180604051908101604052806006905b610cfd610d38565b815260200190600190039081610cf55790505090565b610d3591905b80821115610d31576000816000905550600101610d19565b5090565b90565b60408051908101604052806000151581526020016000801916815250905600a165627a7a72305820121f319fb3f38d95b2d036bbc5590a5ed3e86e61a4568d1154c0af060c7719c00029",
  "source": "pragma solidity ^0.4.18;\n\n\ncontract Booking {\n\n    ////////////////////////////////////////////////////////////////////////////\n    // Types\n    ////////////////////////////////////////////////////////////////////////////\n\n    struct Room {\n        uint8 capacity;\n        Slot[6] slots;\n    }\n\n    struct Slot {\n        bool enabled;\n        bytes32 data;\n        mapping (uint32 => Reservation) reservations;\n    }\n\n    struct Reservation {\n        address owner;\n    }\n\n    ////////////////////////////////////////////////////////////////////////////\n    // Modifiers\n    ////////////////////////////////////////////////////////////////////////////\n\n    modifier onlyOwner() {\n        require(msg.sender == owner);\n        _;\n    }\n\n    modifier noEmptyRoom(uint32 roomId) {\n        require(rooms[roomId].capacity > 0);\n        _;\n    }\n\n    ////////////////////////////////////////////////////////////////////////////\n    // Attributes\n    ////////////////////////////////////////////////////////////////////////////\n\n    /**\n     * Max days in which you can book in advance\n     */\n    uint8 public maxDays;\n\n    /**\n    * Owner of the contract\n    */\n    address private owner;\n\n    /**\n     * Available rooms\n     */\n    mapping(uint32 => Room) private rooms;\n\n    /**\n     * List of IDs of available rooms\n     */\n    uint32[] private roomIds;\n\n    ////////////////////////////////////////////////////////////////////////////\n    // Public admin methods\n    ////////////////////////////////////////////////////////////////////////////\n\n    /**\n     * Constructor where you can set the number of days in which you can book in\n     * advance.\n     *\n     * @param   _maxDays    Days in which you can book in advance\n     */\n    function Booking(uint8 _maxDays) public {\n        require(_maxDays > 0);\n\n        maxDays = _maxDays;\n        owner = msg.sender;\n    }\n\n    /**\n     * Set the numer of days in which you can book in advance.\n     *\n     * @param   _maxDays    Number of days in which you can book in advance\n     */\n    function setMaxDays(uint8 _maxDays) public onlyOwner {\n        require(_maxDays > 0);\n\n        maxDays = _maxDays;\n    }\n\n    /**\n     * Set room information.\n     *\n     * @param   roomId      ID of the room.\n     * @param   capacity    Capacity of the room.\n     */\n    function setRoom(uint32 roomId, uint8 capacity) public onlyOwner {\n        require(capacity > 0);\n\n        if (rooms[roomId].capacity == 0) {\n            roomIds.push(roomId);\n        }\n\n        rooms[roomId].capacity = capacity;\n    }\n\n    function getRoom(uint32 roomId) public view\n        returns (uint8 capacity, bool[6] enabled, bytes32[6] data)\n    {\n        Room memory room = rooms[roomId];\n        capacity = room.capacity;\n        for (uint i = 0; i < 6; i++) {\n            Slot memory slot = room.slots[i];\n            enabled[i] = slot.enabled;\n            data[i] = slot.data;\n        }\n\n        return;\n    }\n\n    /**\n     * Set a time slot data. Useful for store human readable information,\n     * like \"9:00 - 11:00\".\n     *\n     * @param   roomId  ID of the room\n     * @param   order   Time slot of the room\n     * @param   data    Data to store\n     */\n    function setSlot(uint32 roomId, uint8 order, bytes32 data) public noEmptyRoom(roomId) onlyOwner {\n        require(order < 6);\n\n        rooms[roomId].slots[order].enabled = true;\n        rooms[roomId].slots[order].data = data;\n    }\n\n    ////////////////////////////////////////////////////////////////////////////\n    // Public user methods\n    ////////////////////////////////////////////////////////////////////////////\n\n    /**\n     * List all available rooms IDs.\n     *\n     * @return  List of rooms IDs\n     */\n    function listRoomsIds() public view returns (uint32[]) {\n        return roomIds;\n    }\n\n    /**\n     * Checks if a room is available for a given slot and day.\n     *\n     * @param   roomId  Room ID\n     * @param   slotId  Slot\n     * @param   timestamp     Day computed by dividing unix timestamp by 86400\n     * @return          True if available, false if booked.\n     */\n    function checkAvailability(\n        uint32 roomId,\n        uint8 slotId,\n        uint32 timestamp\n    ) public view noEmptyRoom(roomId) returns (bool) {\n        Slot storage slot = rooms[roomId].slots[slotId];\n        if (!slot.enabled) {\n            return false;\n        }\n\n        Reservation memory reservation = slot.reservations[getDay(timestamp)];\n\n        return reservation.owner == address(0);\n    }\n\n    /**\n     * Books a room if available. Fails if the given day to book is \"maxDays\"\n     * after the current day.\n     *\n     * @param   roomId  Room ID\n     * @param   slotId  Slot\n     * @param   timestamp     Day computed by dividing unix timestamp by 86400\n     */\n    function book(uint32 roomId, uint8 slotId, uint32 timestamp) public noEmptyRoom(roomId) {\n        uint32 day = getDay(timestamp);\n        uint32 currentDay = getCurrentDay();\n        require(day >= currentDay && day <= currentDay + maxDays);\n        require(rooms[roomId].slots[slotId].enabled);\n\n        Room storage room = rooms[roomId];\n        Slot storage slot = room.slots[slotId];\n        Reservation storage reservation = slot.reservations[day];\n        require(reservation.owner == address(0));\n\n        reservation.owner = msg.sender;\n    }\n\n    ////////////////////////////////////////////////////////////////////////////\n    // Private methods\n    ////////////////////////////////////////////////////////////////////////////\n\n    /**\n     * Compute current day by dividing block timestamp by 86400.\n     *\n     * @return  Current day\n     */\n    function getCurrentDay() private view returns (uint32) {\n        return uint32(block.timestamp / 86400);\n    }\n\n    function getDay(uint256 timestamp) private pure returns (uint32) {\n        return uint32(timestamp / 86400);\n    }\n}\n",
  "sourcePath": "/home/diego/Documentos/src/github.com/Bigomby/dapps-workshop/app/contracts/Booking.sol",
  "compiler": {
    "name": "solc",
    "version": "0.4.18+commit.9cf6e910.Emscripten.clang"
  },
  "schemaVersion": "1.0.1",
  "updatedAt": "2017-12-30T22:39:05.327Z"
}